:04000000FEEF7FF0A0
:1010000000081300130000000000000000000000B2
:101010000000000000020403010002400000000084
:101020000C6E3D0114BF17EF08F019EF08F080EFC8
:1010300008F00C50050D150EF324F66E100EF4207A
:10104000F76EF86A000EF82208006F00D7FF14FD53
:101050000C50050D010EF326000EF422150EF3249C
:10106000F66E100EF420F76EF86A000EF8220800F3
:101070006F00D7FF15FD0C50050D020EF326000E74
:10108000F422150EF324F66E100EF420F76EF86AB3
:10109000000EF8220800F5500309166F0C50050DDC
:1010A000030EF326000EF422150EF324F66E100E36
:1010B000F420F76EF86A000EF82208006F00D7FFE0
:1010C00019FD0C50050D040EF326000EF422150E2A
:1010D000F324F66E100EF420F76EF86A000EF82274
:1010E00008006F00D4FF0BF00B460B460B46C450B4
:1010F0000B18F70B0B18C46E148F010E81EF08F05C
:10110000000E1200000E0DEC09F00009D8A48BEFC0
:1011100008F08DEF08F08FEF08F0D8EF08F08AECB8
:1011200009F0040E3D01126F330E116F550E116F51
:1011300000D000F06F0040F407F03D01116900D0CD
:1011400000F06F0040F408F0330E3D01116F00D045
:1011500000F06F0040F409F06F0040F40AF08CECEE
:1011600009F084EC09F0C80E0118D8A4BAEF08F011
:10117000BCEF08F0D8EF08F0C80E0218D8A4C3EFEF
:1011800008F0C5EF08F0D8EF08F0C80E0318D8A48F
:10119000CCEF08F0CEEF08F0D8EF08F0C80E031837
:1011A000D8A4D5EF08F0D7EF08F0D8EF08F0CC843A
:1011B0001200000EBA6E000EBB6E000EBC6EDF0E8B
:1011C000C26EC368D30EC46EC30E3A01606F50691D
:1011D000DF0E406F000E816F000E516F000E416FE9
:1011E000000E616F000E426F000E526F000E626FB4
:1011F000436953696369446954696469080E846F7B
:10120000200E056F050EE26F130EE06F1E0E136FBA
:101210001F0E156F140EE16F12000F6E17EF09F01D
:1012200080EC09F028EF09F0000E28EF09F00F50CC
:101230000D6E0E6A0E50000AD8B421EF09F014EFBB
:1012400009F00D50000AD8B410EF09F014EF09F0BE
:1012500012000E0EF66E130EF76E000EF86E00EE14
:1012600006F010EE05F009006F00D7FFEEFFE55025
:10127000E150F9E1056A046A036A026A016A000141
:101280006DEF09F0000E3901C06F000EC16F000E46
:10129000C26F000EC36F000EC46F000EC56F000E4C
:1012A000C66F000EC76F1200020E3D01146F040ED0
:1012B000156F030E166F000E1C6F010E196FC4968A
:1012C0001200600E3901D96F000EDB6F000EDD6F6A
:1012D000050EDF6F000EDE6F120077EC09F0CC9484
:1012E000CA8A82EC08F071EF09F0FEEF7FF042EC61
:1012F00009F0D9EC08F061EC09F054EC09F01200A7
:10130000000E10EC08F012003D01149F1200A964B9
:03131000617461A4
:08131400CA9A1200CA8A1200F5
:04FFFC0029EF09F0F0
:020000040020DA
:10000000FFFFFFFFFFFFFFFFFFFFFFFFFFFFFFFF00
:020000040030CA
:0A0000008CFFF7FF9FFFFFFFFFFFDB
:00000001FF
