:04000000FEEF7FF0A0
:10FF2900C8C494C486C488C49AC28A000E3A0140DF
:10FF39006F000E606F1200600E3901D96F000EDB81
:10FF49006F000EDD6F050EDF6F000EDE6F120020F1
:10FF59000E3A01056F050EE26F130EE06F1F0E15C5
:10FF69006F140EE16F1200000E3D01146F040E159F
:10FF79006F030E166F000E1C6F010E196FC48612E7
:10FF890000290EF66EFF0EF76E000EF86E09006F6F
:10FF990000D4FF02F0016A0001E5EF7FF0036E0172
:10FFA9000E3D01126F60000FF011FD3901A2A9E0A9
:10FFB900EF7FF0E2EF7FF0DAEF7FF03D01105112B1
:10FFC90000A0EC7FF0ACEC7FF095EC7FF0B8EC7F13
:10FFD900F03D01148FBABAF4EF7FF0F6EF7FF0EF3E
:10FFE900EF7FF00250D3EC7FF0016EEFEF7FF0FE70
:07FFF900EF7FF0C5EF7FF080
:020000040020DA
:10000000FFFFFFFFFFFFFFFFFFFFFFFFFFFFFFFF00
:020000040030CA
:0A0000008CFFF7FF9FFFFFFFFFFFDB
:00000001FF
